:07150000FCEF1EF0000000EB
:103DF600120000EE01F0250EEE6AE806FDE1000E67
:103E0600F86E150EF76E000143EF1FF03F0E3F6E82
:103E1600000E406E000E356E000E366E3DC037F059
:103E26003EC038F03F0E396E000E3A6E1CEC1FF0A5
:103E3600120037C03BF038C03CF030EF1FF035C001
:103E46002FF036C030F03B0E316E000E326E39C0A8
:103E560033F03AC034F076EC1FF03BC0F6FF3CC0BE
:103E6600F7FF0800F5500009D8A43CEF1FF03EEF1D
:103E76001FF022EF1FF0000E366E000E356E120098
:103E8600879A000E436E828A150E426E4B0E416E65
:103E9600BE0EE82EFED7412EFCD7422EFAD700D012
:103EA600050E3D6E150E3E6E09EC1FF0829A150E3C
:103EB600426E4B0E416EBE0EE82EFED7412EFCD74B
:103EC600422EFAD700D0432A030E4318D8A46EEF29
:103ED6001FF070EF1FF046EF1FF080EF02F044EF87
:103EE6001FF080EF0AF031C0D9FF32C0DAFFDECF13
:103EF600F6FFDDCFF7FF0800F550250AD8A486EFB8
:103F06001FF088EF1FF0A0EF1FF031C0D9FF32C0BD
:103F1600DAFFDE2A000EDD22000E226E000E216E72
:103F260021C025F02368246831C0D9FF32C0DAFFEA
:103F3600DE2A000EDD22B4EF1FF031C0D9FF32C0F9
:103F4600DAFFDECFF6FFDDCFF7FF0800F550266E6D
:103F5600276A2FC028F030C029F0B5EC1FF097EF84
:103F66001FF0120028502910D8B4BCEF1FF0BEEF86
:103F76001FF0C7EF1FF028502910D8A4C5EF1FF077
:103F8600C7EF1FF0CCEF1FF02650FBEC1EF0FFEF43
:103F96001FF020EE09F02850D9262950DA22DE50EB
:103FA600DE10D8B4D9EF1FF0DBEF1FF0F6EF1FF0ED
:103FB60020EE09F02850D9262950DA2210EE03F017
:103FC6002850E1262950E222DE50E65CE650800ABF
:103FD6002E6EDE50800A2E58D8B0F4EF1FF0F6EFA2
:103FE6001FF0FFEF1FF020EE03F02850D9262950CE
:0A3FF600DA22DE2A000EDD2212009E
:020000040020DA
:10000000FFFFFFFFFFFFFFFFFFFFFFFFFFFFFFFF00
:10001000FFFFFFFFFFFFFFFFFFFFFFFFFFFFFFFFF0
:10002000FFFFFFFFFFFFFFFFFFFFFFFFFFFFFFFFE0
:10003000FFFFFFFFFFFFFFFFFFFFFFFFFFFFFFFFD0
:10004000FFFFFFFFFFFFFFFFFFFFFFFFFFFFFFFFC0
:10005000FFFFFFFFFFFFFFFFFFFFFFFFFFFFFFFFB0
:10006000FFFFFFFFFFFFFFFFFFFFFFFFFFFFFFFFA0
:10007000FFFFFFFFFFFFFFFFFFFFFFFFFFFFFFFF90
:10008000FFFFFFFFFFFFFFFFFFFFFFFFFFFFFFFF80
:10009000FFFFFFFFFFFFFFFFFFFFFFFFFFFFFFFF70
:1000A000FFFFFFFFFFFFFFFFFFFFFFFFFFFFFFFF60
:1000B000FFFFFFFFFFFFFFFFFFFFFFFFFFFFFFFF50
:1000C000FFFFFFFFFFFFFFFFFFFFFFFFFFFFFFFF40
:1000D000FFFFFFFFFFFFFFFFFFFFFFFFFFFFFFFF30
:1000E000FFFFFFFFFFFFFFFFFFFFFFFFFFFFFFFF20
:1000F000FFFFFFFFFFFFFFFFFFFFFFFFFFFFFFFF10
:020000040030CA
:0C000000ECFFFFFF9FFFFFFFFFFFFFFF73
:00000001FF
