:04000000F8EF03F022
:1005000000426F6F746C6F616465725374617274D2
:100510000A0D0000ECEC03F0D3EC03F0000E4A6E81
:10052000879C828C150E496E4B0E486EBE0EE82ECF
:10053000FED7482EFCD7492EFAD700D0120E446EB3
:10054000050E456EC0EC03F0829C150E496E4B0EF5
:10055000486EBE0EE82EFED7482EFCD7492EFAD79D
:1005600000D04A2A030E4A18D8A4B9EF02F0BBEF14
:1005700002F091EF02F0010E2E6E050E2F6E86EC4A
:1005800003F0290E496E960E486E7F0EE82EFED7B8
:10059000482EFCD7492EFAD700F080EF0AF0000E63
:1005A0004A6E91EF02F000EF00F02F503010D8B4F7
:1005B000DCEF02F0DEEF02F0E7EF02F02F50301038
:1005C000D8A4E5EF02F0E7EF02F0ECEF02F02D50D7
:1005D00003EC04F01FEF03F020EE09F02F50D926B2
:1005E0003050DA22DE50DE10D8B4F9EF02F0FBEF23
:1005F00002F016EF03F020EE09F02F50D92630500C
:10060000DA2210EE03F02F50E1263050E222DE50C5
:10061000E65CE650800A356EDE50800A3558D8B068
:1006200014EF03F016EF03F01FEF03F020EE03F0DA
:100630002F50D9263050DA22DE2A000EDD22120099
:1006400038C0D9FF39C0DAFFDECFF6FFDDCFF7FFC4
:100650000800F550250AD8A430EF03F032EF03F07C
:100660004AEF03F038C0D9FF39C0DAFFDE2A000EA6
:10067000DD22000E226E000E216E21C02BF02368B9
:10068000246838C0D9FF39C0DAFFDE2A000EDD2227
:100690005EEF03F038C0D9FF39C0DAFFDECFF6FFD6
:1006A000DDCFF7FF0800F5502D6E2E6A36C02FF013
:1006B00037C030F0D5EC02F041EF03F012003EC03D
:1006C00042F03FC043F073EF03F03CC036F03DC052
:1006D00037F0420E386E000E396E40C03AF041C01D
:1006E0003BF020EC03F042C0F6FF43C0F7FF0800E8
:1006F000F5500009D8A47FEF03F081EF03F065EF18
:1007000003F0000E3D6E000E3C6E1200ABEC03F0E9
:100710000009D8B48EEF03F090EF03F0AAEF03F0D6
:100720009CEF03F02EC0F6FF2FC0F7FF0800F55036
:10073000E0EC03F02E4A2F2A2EC0F6FF2FC0F7FF61
:100740000800F5500009D8A4A8EF03F0AAEF03F0C1
:1007500092EF03F01200000E2D6E0E01C8A9B3EF48
:1007600003F0B5EF03F0BEEF03F09DAABAEF03F07C
:10077000BCEF03F0BEEF03F0010E2D6E2D50120002
:10078000460E466E000E476E000E3C6E000E3D6E2D
:1007900044C03EF045C03FF0460E406E000E416E34
:1007A0005FEC03F01200080E9E6E900E9C6E240EFD
:1007B0009D6E440E9A6E000E9B6E000E2C6E120003
:1007C0002D6E0E01C8A9E7EF03F0E9EF03F0E1EFAA
:1007D00003F02DC099FF1200600E0E01D36F000EC2
:1007E000D56F000ED76F060ED96F000ED86F1200AE
:1007F00000EE01F02C0EEE6AE806FDE1000EF86E48
:0808000000018AEF02F0120072
:07150000FCEF1EF0000000EB
:103DF600120000EE01F0250EEE6AE806FDE1000E67
:103E0600F86E150EF76E000143EF1FF03F0E3F6E82
:103E1600000E406E000E356E000E366E3DC037F059
:103E26003EC038F03F0E396E000E3A6E1CEC1FF0A5
:103E3600120037C03BF038C03CF030EF1FF035C001
:103E46002FF036C030F03B0E316E000E326E39C0A8
:103E560033F03AC034F076EC1FF03BC0F6FF3CC0BE
:103E6600F7FF0800F5500009D8A43CEF1FF03EEF1D
:103E76001FF022EF1FF0000E366E000E356E120098
:103E8600879A000E436E828A150E426E4B0E416E65
:103E9600BE0EE82EFED7412EFCD7422EFAD700D012
:103EA600050E3D6E150E3E6E09EC1FF0829A150E3C
:103EB600426E4B0E416EBE0EE82EFED7412EFCD74B
:103EC600422EFAD700D0432A030E4318D8A46EEF29
:103ED6001FF070EF1FF046EF1FF080EF02F044EF87
:103EE6001FF080EF0AF031C0D9FF32C0DAFFDECF13
:103EF600F6FFDDCFF7FF0800F550250AD8A486EFB8
:103F06001FF088EF1FF0A0EF1FF031C0D9FF32C0BD
:103F1600DAFFDE2A000EDD22000E226E000E216E72
:103F260021C025F02368246831C0D9FF32C0DAFFEA
:103F3600DE2A000EDD22B4EF1FF031C0D9FF32C0F9
:103F4600DAFFDECFF6FFDDCFF7FF0800F550266E6D
:103F5600276A2FC028F030C029F0B5EC1FF097EF84
:103F66001FF0120028502910D8B4BCEF1FF0BEEF86
:103F76001FF0C7EF1FF028502910D8A4C5EF1FF077
:103F8600C7EF1FF0CCEF1FF02650FBEC1EF0FFEF43
:103F96001FF020EE09F02850D9262950DA22DE50EB
:103FA600DE10D8B4D9EF1FF0DBEF1FF0F6EF1FF0ED
:103FB60020EE09F02850D9262950DA2210EE03F017
:103FC6002850E1262950E222DE50E65CE650800ABF
:103FD6002E6EDE50800A2E58D8B0F4EF1FF0F6EFA2
:103FE6001FF0FFEF1FF020EE03F02850D9262950CE
:0A3FF600DA22DE2A000EDD2212009E
:020000040020DA
:10000000FFFFFFFFFFFFFFFFFFFFFFFFFFFFFFFF00
:10001000FFFFFFFFFFFFFFFFFFFFFFFFFFFFFFFFF0
:10002000FFFFFFFFFFFFFFFFFFFFFFFFFFFFFFFFE0
:10003000FFFFFFFFFFFFFFFFFFFFFFFFFFFFFFFFD0
:10004000FFFFFFFFFFFFFFFFFFFFFFFFFFFFFFFFC0
:10005000FFFFFFFFFFFFFFFFFFFFFFFFFFFFFFFFB0
:10006000FFFFFFFFFFFFFFFFFFFFFFFFFFFFFFFFA0
:10007000FFFFFFFFFFFFFFFFFFFFFFFFFFFFFFFF90
:10008000FFFFFFFFFFFFFFFFFFFFFFFFFFFFFFFF80
:10009000FFFFFFFFFFFFFFFFFFFFFFFFFFFFFFFF70
:1000A000FFFFFFFFFFFFFFFFFFFFFFFFFFFFFFFF60
:1000B000FFFFFFFFFFFFFFFFFFFFFFFFFFFFFFFF50
:1000C000FFFFFFFFFFFFFFFFFFFFFFFFFFFFFFFF40
:1000D000FFFFFFFFFFFFFFFFFFFFFFFFFFFFFFFF30
:1000E000FFFFFFFFFFFFFFFFFFFFFFFFFFFFFFFF20
:1000F000FFFFFFFFFFFFFFFFFFFFFFFFFFFFFFFF10
:020000040030CA
:0C000000ECFFFFFF9FFFFFFFFFFFFFFF73
:00000001FF
